:020000040800F2
:10000000B00801208D020008B72C0008592900080B
:10001000952C0008191700085D5500080000000025
:10002000000000000000000000000000054B000878
:10003000431E0008000000001D030008614C00087A
:10004000A7020008A7020008A7020008A7020008EC
:10005000A7020008A7020008A7020008A7020008DC
:10006000A7020008A7020008A7020008A7020008CC
:10007000A7020008A7020008A7020008A7020008BC
:10008000A7020008A7020008D914000851170008A9
:100090001D170008A7020008A7020008A702000811
:1000A000A7020008A7020008A7020008A70200088C
:1000B000A7020008A7020008A7020008A70200087C
:1000C000A7020008A7020008A7020008A70200086C
:1000D000A702000819500008A9500008455100085F
:1000E000A7020008A7020008A7020008A70200084C
:1000F000A7020008A7020008A7020008A70200083C
:10010000A7020008A7020008A7020008A70200082B
:10011000E14F0008A7020008A7020008A702000894
:10012000A7020008A7020008A7020008A70200080B
:10013000A7020008A7020008A702000895170008F8
:100140006D170008A7020008A7020008A702000810
:10015000A7020008A7020008A702000841520008F1
:10016000A7020008A7020008A7020008A7020008CB
:10017000A7020008A7020008A7020008A7020008BB
:10018000A7020008A702000800F002F800F06FF8CC
:100190000AA090E8000C82448344AAF10107DA45E2
:1001A00001D100F064F8AFF2090EBAE80F0013F0C5
:1001B000010F18BFFB1A43F001031847D893000042
:1001C000F89300000A444FF0000C10F8013B13F0C4
:1001D000070408BF10F8014B1D1108BF10F8015BA0
:1001E000641E05D010F8016B641E01F8016BF9D193
:1001F00013F0080F1EBF10F8014BAD1C0C1B09D1EA
:100200006D1E58BF01F801CBFAD505E014F8016B5B
:1002100001F8016B6D1EF9D59142D6D370470000ED
:100220000023002400250026103A28BF78C1FBD8FF
:10023000520728BF30C148BF0B607047662909F0DC
:100240004680642900F01281732900F0D2830020D7
:1002500070471FB509F031F800F0E2FB0400002000
:10026000002108F0CDF9E0601FBD10B510BD00F011
:10027000F3FC1146FFF7EDFF07F0C2F900F011FDA6
:1002800003B4FFF7F2FF03BC06F0DEF8094880472D
:1002900009480047FEE7FEE7FEE7FEE7FEE7FEE768
:1002A000FEE7FEE7FEE7FEE704480549054A064B80
:1002B000704700007D4C000889010008B002012051
:1002C000B0080120B0040120B0040120EFF3108039
:1002D00072B6704780F310887047264C4FF6FF7552
:1002E00025604FF0000484F30988234C4FF001058A
:1002F0002570224C4FF08055256062B6FEE730B481
:100300001E4C4FF08055256030BC704730B41B4CFC
:100310004FF08055256030BC704700BF72B6EFF3D8
:10032000098050B11EF0100F08BF20ED108A203850
:1003300080E8F00F12490968086000B5114880474D
:100340005DF804EB104811490A7802700C48104916
:100350000A680260106890E8F00F20301EF0100F5D
:1003600008BFB0EC108A80F309884EF0040E62B624
:10037000704700BF22ED00E08600002004ED00E0A1
:100380008C000020213500087B0000207C0000202C
:1003900094000020704700000FB4044910B503AA70
:1003A000029800F02BFB10BC5DF814FB4C00002001
:1003B0002DE9F0410E460446002020622046E16807
:1003C000884730B3252805D0D4E901219047206A19
:1003D000401CF2E7E168204600278847050018D056
:1003E000A5F14100192802D820354FF400673246A4
:1003F000294620462760FFF721FF40B1012804D09D
:10040000F61D26F007060836D8E7361DD6E728463B
:10041000DAE7206ABDE8F08170B50C460546012A8E
:1004200005D02878800600D5EA69002302E0012380
:1004300005E05B1C934202D2E05C0028F9D1A86978
:10044000E618C01AA861286A184428622846AFF343
:10045000008004E0D5E9012114F8010B9047B44273
:10046000F8D32846AFF3008070BD00002DE9F041BD
:100470000646002410687529314616A510D0AFF342
:100480000080002802DA404213A507E031688A079D
:1004900001D512A502E0490704D511A5012401E008
:1004A000AFF3008000210A2206F1240709E0B0FB27
:1004B000F2FCB0FBF2F302FB1C003030785418461B
:1004C000491C0028F3D123462A463046BDE8F041B6
:1004D00000F017B8000000002D0000002B00000005
:1004E00020000000704770477047704710B500F05B
:1004F0009BFA006810BD10B5044600F095FA046040
:1005000010BD2DE9F0470D4699469246044600F18C
:1005100024080168880604D5E06921F010012160F3
:1005200000E00120A84201DD471B00E00027A1698F
:100530007A1902EB0900081AA0612078C00602D4DB
:100540002046AFF30080002608E0D4E901211AF824
:1005500006009047206A401C761C20624E45F4DB62
:100560002078C0060AD52046AFF3008006E0D4E923
:10057000012130209047206A401C2062381EA7F1DC
:100580000107F4DC07E0D4E9012118F805009047E1
:10059000206A401C2062281EA5F10105F3DC2046DC
:1005A000AFF300802078000602D50220BDE8F08776
:1005B0000120FBE770472DE9FF4F0C461E464FF028
:1005C000FF378BB0D2E90001DDF860800A908A46DF
:1005D000C1F30A5505B93D46002108464FF0000019
:1005E000BAF1000F00F4400005DA00EB80004FF490
:1005F000400101EA50004FEA9059B9F1010F00DDC6
:10060000B9460A9850EA4A000ED044F61050A5F2B6
:10061000FF3545432F14B8F1000F1ED07542291E37
:100620001EDDC9F100021CE0B8F1010F4FF000001F
:1006300001D0302103E0F24305E02154401CB042D8
:10064000FBDB30460022002121540B99C1F80880C1
:10065000C1E900200FB0BDE8F08FBD1B6D1CDEE7C7
:100660004A4600DA694206A800F080FA06AB93E831
:10067000070003AB83E8070050460A9900F058FBD7
:100680008DE80700A0F500501F3800900398002D5A
:1006900009DD42F21F014A46084403A90390684657
:1006A00000F0B7FD08E0A0F500504A461F3803A946
:1006B0000390684600F0C1FD8DE807000004000CBF
:1006C00003D04FF0FF30410800E01046B8F1000FB2
:1006D00003D00022009215461EE0751E05D400F0DE
:1006E000A7F9303262556D1EF9D5B3460122084391
:1006F00002D000227F1C04E02078302801D10022A3
:100700007F1E002A099786D01DE0112D07DA00F020
:100710008FF9303262556D1C50EA0102F5D1084361
:1007200002D00098C8B10EE00021681E05E0235CED
:10073000625C63542254401E491C8142F7DBAB4685
:10074000A81B401E0990002004F80B000B98099A82
:10075000C0F80880C0E9002B7CE711264FF00008A4
:1007600059E72DE9F04F88460446D21D22F00701D3
:1007700091B0D1E90001CDE90A0105F02FF9024657
:100780000B98C00F01D02D2007E02068810701D50C
:100790002B2002E0202101EAC000032A099001D0A9
:1007A000072A05DB03464146204600F09FF90BE18E
:1007B0002078800601D5E06900E00620B8F1650FD9
:1007C000814606D0B8F1660F18D0B8F1670F70D126
:1007D00031E00020B9F1110F009001DB112301E09D
:1007E00009F101030AAA01A90CA8FFF7E4FEDDE95B
:1007F0000C70002609F10105834647E001204B46B5
:1008000000904FF000470AAA01A90CA8FFF7D3FEF9
:10081000DDE90DB00C995D46002610B909F1010023
:100820000D18B9EB050003D4C0F1FF3609F101053D
:10083000A5EB09002BE0B9F1010F01DA4FF0010936
:100840000020B9F1110F0090484601DD112300E0AE
:1008500003460AAA01A90CA8FFF7ADFEDDE90C705A
:100860004D4600268346207800070AD4AB4500DABF
:100870005D4601A8012D04DD411911F8011C302944
:1008800007D04F4502DA17F1040F04DA012082463F
:100890000FE06D1EEEE7002F02DCED1B3E4403E08F
:1008A000781CA84200DD7D1CB81B00F1010A4FF046
:1008B00000472078000703D4AA4501DB4FF0FF3A38
:1008C0000021B7F1004F0DF143088DF8431024D0FB
:1008D00002202B23002F01DA7F422D230A21021E42
:1008E000A0F1010000DC5FB197FBF1FC97FBF1F296
:1008F00001FB1C7C17460CF1300C08F801CDEEE72B
:10090000A8F1010003702188090501D5452100E007
:100910006521A0F1010800F8011C09980FA9A1EBBD
:100920000807FF1D00B10120411901EBEA70A16920
:100930003844081A401EA0612078C00602D4204620
:10094000AFF30080099828B1D4E901219047206ACB
:10095000401C20622078C00622D52046AFF30080DC
:100960001EE0002E04DBB34502DD01A8805D00E03F
:100970003020D4E901219047206A401C2062761C77
:10098000AAF101005FEA000A0AD100F049F8C06844
:100990000168405CD4E901219047206A401C206234
:1009A000281EA5F10105DCDC07E0D4E9012118F8D7
:1009B000010B9047206A401C2062381EA7F10107F6
:1009C000F3DC2046AFF30080032011B043E610B5FE
:1009D000436913B1AFF3008001E0FFF71DFD012073
:1009E00010BD127800F124010A7000224A70012221
:1009F000EDE711684FF0FF32E9E70000074B70B5F3
:100A00000D467B4400F05FF80446284600F01CF9D0
:100A100010B14FF0FF3070BD204670BD1364000070
:100A200000487047700201200048704750020120C2
:100A300030B5B0F10A024FEA900E71F100034EEAB0
:100A4000817EB0EB0E0061EB91014FEA101E4EEA81
:100A5000017E10EB0E0041EB11114FEA102E4EEA11
:100A6000016E10EB0E0041EB11214FEA104E4EEAE1
:100A7000014E10EB0E0041EB1141401841F1000115
:100A80004FEAD00040EA41704FEAD10110EB8005F7
:100A90004FEA810444EA907444EB01046D1944EB7D
:100AA0000404521BA3414FF0000348BF0A3200D593
:100AB00030BD401C41F1000130BD000001694A1CFD
:100AC00002610878704700B58FB0CDE9013100218F
:100AD000059105497944CDE9031011466846FFF7B1
:100AE00067FC0FB000BD0000E5FFFFFF2DE9F041FE
:100AF0001F46044603260168072A01F4006004DB50
:100B000008B116A505E016A503E008B115A500E09B
:100B100015A521F010002060A069C01EA0610FB1D2
:100B2000401EA0612046AFF300804FB1D4E90121FF
:100B300038469047206A401C2062C01C206206E0B4
:100B4000206AFAE7D4E9012115F8010B9047761ED7
:100B5000F8D22046AFF30080BDE8F0814E414E0050
:100B60006E616E00494E4600696E66002DE9F047E1
:100B7000814616468AB0334878440DC88DE80D008A
:100B800030487844801C03AC0DC884E80D0041F661
:100B90009B300844372190FBF1F290FBF1F5A5F171
:100BA000800501FB12041B3C02D56442012000E0D9
:100BB0000020DFF890A080460027FA44AAF1BE0A80
:100BC0000DE0E00709D03246684607EB47010AEB23
:100BD000810100F032FB8DE8070064107F1C002CBF
:100BE000EFD1184F7F44AC3F18E0E80714D007EB73
:100BF00004100DF1180A90E80E008AE80E00C06893
:100C0000F04201D198190890324606A903A800F0D5
:100C100014FB03AB83E807006D10641C002DE4D1C6
:100C200032466946B8F1000F03A802D000F0F1FA8D
:100C300001E000F002FBC9E90001C9F808200AB090
:100C4000BDE8F087008A0000007B00F0800070475C
:100C500000487047500201207546FFF7F9FFAE4685
:100C600005006946534620F00700854618B020B5B8
:100C7000FFF71AFBBDE820404FF000064FF00007D9
:100C80004FF000084FF0000B21F00701AC46ACE834
:100C9000C009ACE8C009ACE8C009ACE8C0098D46A1
:100CA00070470446AFF300802046FFF7E9FA0000E2
:100CB0004FF0013C50F8042B51F8043B9A4221D1EB
:100CC000A2EB0C03934313EACC1317D150F8042B77
:100CD00051F8043B9A4215D1A2EB0C03934313EA5B
:100CE000CC130BD150F8042B51F8043B9A4209D194
:100CF000A2EB0C03934313EACC13DBD04FF00000BC
:100D0000704700BFD01A01BAB1FA81F101F01801A1
:100D100022FA01F0CB40C1F12001DBB2C0B2C01A0F
:100D20002CFA01F3D11A914311EAC311E6D17047AD
:100D30005FEA400C08BF91F0000F4FEA8C234FEAA6
:100D4000C12243EA51514FEA1C5018BF00F5F04050
:100D50004FEA300018BF41F000415FEA6C5C00F0E0
:100D60002980BCF1FF3F08BF40F080407047130C62
:100D700006BF12044FF0100C4FF0000C130E04BF0E
:100D800012020CF1080C130F04BF12010CF1040C39
:100D9000930F04BF92000CF1020CD30F04BF52005A
:100DA0000CF1010C11464FF00002A0F11F00A0EB66
:100DB0000C00704711F0004F08BF704731F0004140
:100DC0003FF4D5AF0B0C06BF09044FF0100C4FF0E9
:100DD000000C0B0E04BF09020CF1080C0B0F04BF32
:100DE00009010CF1040C8B0F04BF89000CF1020CFB
:100DF000CB0F04BF49000CF1010CCCF12003A0EB98
:100E00000C0022FA03F302FA0CF241EA030100F1AA
:100E10000100704720F07F4C80EA030023F07F47F9
:100E2000ACEB070303F57C5300F0004003F1FF0334
:100E30002DE980494FEA154B09B44FEA144325EADE
:100E40000B4E24EA03480FF2042606EB1327490849
:100E50003E785FEA320203FB0667C7F5000707FB2F
:100E600006F64FEA54374FEAD64606F1020607FB6C
:100E7000066CCCF1005C4FEA1C472CEA074C07FBE0
:100E800006F40CFB06F504EB15464FEA961634BF44
:100E900000204FF000404FEAD13706FB07FC4FEA35
:100EA0001C4C0CFB0BF7D21B03FB0CF761EB07018F
:100EB0000CFB0EF7B0EB074072EB17420CFB08F788
:100EC00034BFA2EB0742B2EB074261EB17414FEA96
:100ED0000C444FEA910706FB07FC4FEA1C4C0CFB45
:100EE0000BF7B0EBC74072EB573203FB0CF734BF84
:100EF000A2EBC742B2EBC74261EB57310CFB0EF7D6
:100F0000B0EBC70072EB57720CFB08F734BFA2EBD3
:100F1000C702B2EBC70261EB5771039F4FEA8161D1
:100F200041EA921104EBCC044FEAD1374FEA8262D6
:100F300006FB07FC42EA90124FEA80604FEA1C4C25
:100F40000CFB0BF7D21B03FB0CF761EB07010CFB4F
:100F50000EF7B0EB074072EB17420CFB08F734BFFB
:100F6000A2EB0742B2EB074261EB17414FEA8C5507
:100F70004FEA910704EB9C2406FB07FC4FEA1C4C4C
:100F80000CFB0BF7B0EBC74072EB573203FB0CF7CF
:100F900034BFA2EBC742B2EBC74261EB57310CFB47
:100FA0000EF7B0EBC70072EB57720CFB08F734BFBB
:100FB000A2EBC702B2EBC70261EB577115EB4C25F0
:100FC0004FEA816141EA92114FEA82624FEAD137DA
:100FD00042EA901206FB07FC44F100044FEA8060ED
:100FE0004FEA1C4C0CFB0BF7D21B03FB0CF761EB1D
:100FF00007010CFB0EF7B0EB074072EB17420CFB3E
:1010000008F734BFA2EB0742B2EB074261EB17418E
:1010100015EB1C154FEA813141EA92414FEA8232C9
:1010200042EA90424FEA80304FEA0C7644F10004E5
:1010300048EA03434EEA0B484FF0000EB2EB080CAF
:1010400071EB030724BF624639464EEB0E0E4FF09C
:10105000000B0018524149414BEB0B0BB2EB080C53
:1010600071EB03077BF1000B24BF624639464EEB60
:101070000E0E4FF0000B0018524149414BEB0B0B89
:10108000B2EB080C71EB03077BF1000B24BF624647
:1010900039464EEB0E0E51EA020718BF46F0010624
:1010A00016EB0E7655F1000254F1000103D5BDE8B0
:1010B0008901BDE80088BDE88901BDE80048B6198E
:1010C000524141EB0101A3F10103704780807F7E13
:1010D0007D7C7B7A797877767675747372717170AE
:1010E0006F6E6E6D6C6C6B6A6A6968686766666560
:1010F0006464636362616160605F5F5E5E5D5D5CEE
:101100005C5B5B5A5A59595858575756565555555E
:101110005454535352525251515050504F4F4F4EBE
:101120004E4D4D4D4C4C4C4B4B4B4A4A4A4949490C
:10113000484848474747474646464545454444444E
:10114000444343434342424242414141002B26D45F
:10115000770021D01CB54FEA370703B44FF01000D9
:101160004FF010014FF000000FBCBDE810400BF134
:10117000010BBBF1010F08BF5FEA170722BF12F195
:10118000010211F101014FF0004143F1000300F0B1
:10119000004043EA00007047F9D35708DAE746EA0F
:1011A000064613F1400F4FEA16461FDD13F1200FDC
:1011B000DFBF16430A46002120335B42C8D0C3F18B
:1011C000200746EA064602FA07F74FEA164646EABD
:1011D0000706C3F1200722FA03F201FA07F721FA02
:1011E00003F14FF0000342EA0702B1E746EA0206C4
:1011F00046EA06464FEA164646EA0106BCBF46EAFC
:101200000646360C4FF000034FF000024FF000018D
:101210009EE72DE9C048934630B491E8380007C8EE
:1012200031EA400C48BF34EA430C03D5FFF7F2FD26
:10123000FFF78CFFF0BCBDE800882DE9C04893465D
:1012400030B491E8380007C810F0804F08BF13F0A1
:10125000804F03D100F005F8FFF778FFF0BCBDE840
:10126000008820F07F4780EA030023F07F4C07EBE3
:101270000C03A3F57C5300F00040A3F1FE0392F0B1
:10128000000F00F0B38095F0000F00F077802DE99B
:1012900001494FEA11404FEA144621EA004800FB99
:1012A00006FC24EA064708FB06F607FB08F800FBE5
:1012B00007F718EB06484CEB164C4FEA124B18EBAD
:1012C00007484FEA15464CEB174022EA0B4E0BFB42
:1012D00006FC25EA06470EFB06F607FB0EFE0BFB97
:1012E00007F71EEB064E4CEB164C4FF000061EEBBC
:1012F000074E4CEB174B18EB0B0840F1000018EBB6
:101300000E0B58EB000840F100008F1A4FF000015F
:101310003CBFC943661B14BFB5EB040C00213CBFA6
:10132000C943F61B4FEA17444EEA8E0E27EA0445DE
:101330004FEA1C4704FB07622CEA074C05FB07F742
:101340000CFB05F604FB0CFC16EB074642EB1742C0
:1013500016EB0C4642EB1C421BEB060658EB020256
:10136000414146EA9E0601D5BDE80189B6195241C0
:1013700041EB0101A3F10103BDE801894FEA1445E6
:101380004FEA114724EA054621EA074C05FB07F41A
:1013900006FB07F70CFB06F105FB0CFC11EB074104
:1013A00044EB17444FEA124711EB0C4144EB1C4449
:1013B00022EA074C05FB07F206FB07F70CFB06F6D3
:1013C00005FB0CFC16EB074642EB174216EB0C46EE
:1013D00042EB1C456A1854F1000148BF7047B6192A
:1013E000524141EB0101A3F10103704795F0000F59
:1013F00037D04FEA11424FEA144721EA024624EA65
:10140000074C02FB07F106FB07F70CFB06F402FB97
:101410000CFC14EB074441EB17414FEA154714EB62
:101420000C4441EB1C4125EA074C02FB07F506FB87
:1014300007F70CFB06F602FB0CFC16EB074645EB28
:10144000174516EB0C4645EB1C42121951F10001F1
:1014500048BF7047B619524141EB0101A3F10103A6
:1014600070474FEA14454FEA114724EA054621EA3E
:10147000074C05FB07F106FB07F70CFB06F24FF0E4
:10148000000605FB0CFC12EB074241EB174112EB87
:101490000C4251EB1C4148BF7047921841EB0101CF
:1014A000A3F10103704700220A12D343036070477F
:1014B00070B502460020002300240B125568012657
:1014C0008E4005EA060415681D4015B10CB10120D7
:1014D00000E0002070BD000010B540F20521054875
:1014E000FFF7E6FF012804D140F205210148FFF78C
:1014F000DAFF10BD0022014070B50346D87A0128FA
:1015000030D1597B187B41EA0024987B0101D87BBC
:1015100041EA2015197CD87B00F00F0041EA002633
:101520001021DFED120A9FED120A204607F04EF857
:10153000104880ED000A0C21F3EE0E0ABBEE0E0AF5
:10154000284607F043F80B4880ED010A0C21F3EE22
:10155000020ABBEE020A304607F038F8054880ED73
:10156000020A00E000BF00BF70BD00000000BF42E3
:101570000000BFC2707D002010B51348807803289A
:1015800020D112480078A8B91148124908602020DB
:1015900001F0DAF900B910BD9FED0F0A0F4880ED98
:1015A000020A0F480B49086008480078401C0749A8
:1015B000087006E004200449887000200349087080
:1015C00000BF00BF00BFE6E7000000204D02002082
:1015D000F4000020F0000020000000008C7B0020C0
:1015E0007889002010B588B004460121022003F05C
:1015F0003FF90121880403F04BF907220B2123480E
:1016000001F0FEF807220A21204801F0F9F84FF412
:101610004060059002208DF818008DF81900002018
:101620008DF81A0001208DF81B0005A9174801F05C
:101630009FF801940020ADF80800ADF80A00ADF85D
:101640000C00ADF810000C20ADF80E0001A91048F8
:1016500003F0B8FE01210E4803F058FE012240F2CB
:1016600025510B4803F088FE27208DF81C00072029
:101670008DF81D0000208DF81E0001208DF81F0040
:1016800007A801F019FB08B010BD000000040240DB
:101690000048004010B504461B480078401C1A4919
:1016A000087008460078642828DA94ED000ADFED17
:1016B000170AB4EEE00AF1EE10FA0BDD94ED000A21
:1016C000DFED130A30EE600A84ED000A2046FFF7D2
:1016D000E1FF13E094ED000ADFED0E0AB4EEE00A3C
:1016E000F1EE10FA0AD294ED000ADFED090A30EEAD
:1016F000200A84ED000A2046FFF7CCFF024800785C
:10170000401E0149087010BD400200200000344313
:101710000000B443000034C300BFFEE700B585B04D
:1017200002210A4800F046F970B16A4600210748D4
:1017300000F063FA6846FFF7DFFE684605F0ACFE8E
:101740000221024800F034F805B000BD00640040FA
:1017500010B50121044800F02DF918B1012102480B
:1017600000F026F810BD00000064004000B585B010
:101770000221074800F01EF940B16A4600210448E2
:1017800000F03BFA0221024800F012F805B000BD5B
:101790000068004010B50121044800F00BF918B1B1
:1017A0000121024800F004F810BD0000006800406C
:1017B000B1F5007F3AD00FDC202928D006DC0129C2
:1017C0001CD004291DD0082940D11DE0402921D07A
:1017D000B1F5807F3AD126E0B1F5004F31D006DC7B
:1017E000B1F5806F25D0B1F5006F2FD124E0B1F5B0
:1017F000803F12D0B1F5003F28D111E0154A826038
:1018000025E00822C26022E01022C2601FE0082208
:1018100002611CE01022026119E00822426016E019
:101820001022426013E00422426010E00422426071
:101830000DE0042242600AE000228261042242603C
:1018400005E0002282610422426000E000BF00BF88
:10185000704700000101010010B504460B488442A6
:1018600009D10121480603F023F800214FF0007050
:1018700003F01EF808E00121880603F019F80021A2
:101880004FF0806003F014F810BD000000640040C9
:1018900010B5002106E0282200BF1300A2F10102CA
:1018A000FBD1491C8142F6D310BD000010B50021C8
:1018B000837A012202FA03F13D4A126842F00102E2
:1018C0003B4B1A603A4A1C3212688A43384B1C332D
:1018D0001A60027BCAB9364A0C3212688A43344B0A
:1018E0000C331A604288C38842EA0343304A4032CC
:1018F000847A42F834300288838842EA03432C4ACF
:101900004032847A02EBC4025360027B012A19D16F
:10191000274A0C3212680A43254B0C331A6042885E
:10192000038842EA0343224A4032847A42F8343040
:10193000C288838842EA03431D4A4032847A02EB1C
:10194000C4025360C27A3AB9194A121D12688A4316
:10195000174B1B1D1A6006E0154A121D12680A4338
:10196000134B1B1D1A60028932B9114A14321268D6
:101970008A430F4B14331A600289012A06D10C4A9C
:10198000143212680A430A4B14331A60427B012A4C
:1019900006D1074A1C3212680A43054B1C331A60F1
:1019A000034A126822F00102014B1A6010BD0000C8
:1019B0000066004070B504460D4600266069284068
:1019C000002871D0B5F5807F5CD010DC082D35D0B3
:1019D00006DC012D20D0022D24D0042D72D127E069
:1019E000102D31D0202D35D0402D6BD138E0B5F5FC
:1019F000004F60D009DCB5F5007F49D0B5F5806FA8
:101A00004CD0B5F5006F5DD14FE0B5F5803F2DD0DE
:101A1000B5F5003F56D12FE0A0682D4900F008FA37
:101A2000064651E0E068032100F002FA06464BE06A
:101A3000E068082100F0FCF9064645E0E068102166
:101A400000F0F6F906463FE02069032100F0F0F9C6
:101A5000064639E02069082100F0EAF9064633E03D
:101A60002069102100F0E4F906462DE060680821A5
:101A700000F0DEF9064627E06068102100F0D8F992
:101A8000064621E0A069012100F0D2F906461BE0DC
:101A9000A069022100F0CCF9064615E0A0690421F6
:101AA00000F0C6F906460FE00FE0A069702100F0D3
:101AB000BFF9064608E06068042100F0B9F906465F
:101AC00002E0FFE7002600BF00E00026304670BDC0
:101AD000010101001AB143690B43436102E043690C
:101AE0008B434361704730B50246002000231468E1
:101AF00024F002041460146844F00104146000E04F
:101B00005B1C546804F001041CB94FF6FF74A34237
:101B1000F6D1546804F001040CB900206CE08C7913
:101B2000012C04D1146844F08004146003E01468AC
:101B300024F080041460CC79012C04D1146844F0A2
:101B40004004146003E0146824F0400414600C7A2C
:101B5000012C04D1146844F02004146003E01468DC
:101B600024F0200414604C7A012C04D1146844F051
:101B70001004146003E0146824F0100414608C7ADC
:101B8000012C04D1146844F00804146003E01468C4
:101B900024F008041460CC7A012C04D1146844F0B9
:101BA0000404146003E0146824F0040414608C78C6
:101BB000A407CD7844EA05640D7944EA05444D79DB
:101BC00044EA05540D886D1E2C43D461146824F03A
:101BD00001041460002300E05B1C546804F001045D
:101BE0001CB14FF6FF74A342F6D1546804F001040F
:101BF0000CB1002000E0012030BD10B500F5D87315
:101C000003EB01131B6803F004031372137A53B937
:101C100000F5D87303EB01131B6840F2FF7404EA6C
:101C20005353136009E000F5D87303EB01131B68ED
:101C30006FF0604404EAD303536000F5D87303EBFC
:101C400001131B6803F00203537200F5D87303EB12
:101C500001135B6803F00F03937200F5D87303EB75
:101C600001135B681B0AD37400F5D87303EB0113EF
:101C70009B68D37200F5D87303EB01139B681C0AB1
:101C8000147300F5D87303EB01139B681C0C547399
:101C900000F5D87303EB01139B681B0E937300F5DB
:101CA000D87303EB0113DB68D37300F5D87303EB30
:101CB0000113DB681C0A147400F5D87303EB0113DD
:101CC000DB681C0C547400F5D87303EB0113DB685C
:101CD0001B0E937421B9C36843F02003C36003E073
:101CE000036943F02003036110BD00218171C171BC
:101CF000017241728172C1728170C17003210171E0
:101D00000221417101210180704710B50246002077
:101D1000936803F08063B3F1806F00D110E09368A3
:101D200003F00063B3F1006F01D1012008E0936874
:101D300003F08053B3F1805F01D1022000E0042062
:101D4000042874D002F5C07303EB00131B6803F082
:101D5000010402F5C07303EB00131C600B7A7BB91E
:101D60004B7A0C8843EA445302F5C07404EB001428
:101D70002468234302F5C07404EB0014236010E0D0
:101D80000B7A4C6843EAC4034C7A234302F5C074CF
:101D900004EB00142468234302F5C07404EB001420
:101DA00023608B7A03F00F038B7202F5C07303EB91
:101DB00000135B6823F00F0402F5C07303EB0013FC
:101DC0005C6002F5C07303EB00135B688C7A2343FD
:101DD00002F5C07404EB001463608B7B1C064B7B24
:101DE00044EA03440B7B44EA0323CC7A234302F501
:101DF000C07404EB0014A3608B7C1C064B7C44EA8B
:101E000003440B7C44EA0323CC7B234302F5C074D8
:101E100004EB0014E36002F5C07303EB00131B68CE
:101E200043F0010402F5C07303EB00131C6010BD06
:101E30000246002002EA01030BB1012000E000206D
:101E40007047704702E0052001F06CFBFBE70000E3
:101E5000FEE3F74800781D287DD2DFE800F00F2967
:101E60007D7EA7CBFDFCFBFAF9F8F7F6F5F47C7C58
:101E7000F3F2F1F0EFEEEDECEBEAE9000020ED49D2
:101E80000860091D0860EC4890ED030AEB4880EDFE
:101E9000000A642001F046FB012004F0BDFE4FF46F
:101EA000967001F03FFB0120E1498870087001E263
:101EB0009FEDE30A03F06CF8012000F027FD80B3EA
:101EC00040F21450DB490860091D08604FF47A7035
:101ED00001F028FB40F27B40D6490860091D0860EC
:101EE0004FF47A7001F01EFB4FF47A7001F01AFB88
:101EF0000320CF49087001204870032088706420B7
:101F000001F010FB012004F0BBFECE4890ED000A6A
:101F1000CD4880ED000ACB4890ED010ACB4880ED1A
:101F2000000A022000F0F2FC10B10220C049087043
:101F3000042000F0EBFC20B10D20BD490870012009
:101F40004870102000F0E2FC20B10E20B849087063
:101F500000204870B4E3B2E3B2E3B5484078022809
:101F60001FD19FEDBB0ABB4880ED030A9FEDB80A65
:101F700080ED040A9FEDB60A80ED050A40F27B4031
:101F8000AC490860091D0860012004F045FE4FF4CB
:101F9000FA7001F0C7FA0420A54908700120887082
:101FA00003E09FEDA70A02F0F3FF89E3A0488078E1
:101FB00002281ED14FF490609E490860091D0860F8
:101FC00005209B4908700120487003208870642018
:101FD00001F0A8FA012004F053FE9A4890ED000A9F
:101FE000994880ED000A974890ED010A974880EDE6
:101FF000000A65E38E48407802283AD14FF4916098
:102000008C490860091D08609FED910A914880ED98
:10201000030A9FED8F0A80ED040A9FED8D0A80ED83
:10202000050A83488078042827D10620804914E0D7
:1020300077E2A4E223E250E2D5E1FCE187E1AEE100
:1020400039E160E1D0E01BE338E3E2E2B5E20EE122
:10205000ACE07DE05EE02FE010E00870012004F0CD
:10206000DBFD4FF4FA7001F05DFA012070498870D1
:1020700003E09FED790A02F08BFF21E36C48807842
:10208000022818D107206A490870012048700320EF
:102090008870642001F046FA012004F0F1FD6948DF
:1020A00090ED000A684880ED000A664890ED010A4C
:1020B000664880ED000A03E35D484078022824D199
:1020C0004FF491605B490860091D08609FED600A4C
:1020D000604880ED030A9FED5E0A80ED040A9FEDE3
:1020E0005C0A80ED050A52488078042811D1082046
:1020F0004F490870012004F08FFD4FF4FA7001F091
:1021000011FA01204A49887003E09FED540A02F059
:102110003FFFD5E246488078022818D1092044497B
:1021200008700120487003208870642001F0FAF9DB
:10213000012004F0A5FD434890ED000A424880EDDF
:10214000000A404890ED010A404880ED000AB7E2DD
:1021500037484078022824D14FF49160354908600F
:10216000091D08609FED3A0A3A4880ED030A9FED89
:10217000380A80ED040A9FED360A80ED050A2C48E6
:102180008078042811D10A2029490870012004F020
:1021900043FD4FF4FA7001F0C5F90120244988701D
:1021A00003E09FED2F0A02F0F3FE89E220488078D9
:1021B000022818D112201E490870012048700320FF
:1021C0008870642001F0AEF9012004F059FD1D482B
:1021D00090ED000A1C4880ED000A1A4890ED010AB3
:1021E0001A4880ED000A6BE211484078022839D184
:1021F0009FED170A174880ED030A9FED150A80ED41
:10220000040A9FED130A80ED050A09488078042826
:102210002CD10B2006490870012004F0FDFC4FF47E
:10222000FA7001F07FF90120014988701EE000007A
:10223000000000203418004094890020080000208D
:10224000666634C2208900200C00002010000020A7
:10225000000000000889002066663C42333335C226
:1022600000003E421FED030A02F092FE28E2FD4804
:10227000807802281ED14FF49160FB490860091D47
:1022800008601420F749087001204870F74890ED65
:10229000000AF74880ED000AF44890ED010AF5487D
:1022A00080ED000A03208870642001F03BF90120D2
:1022B00004F0E6FC04E2EB48407802281ED11FED52
:1022C0001C0AED4880ED030A1FED1F0A80ED040A89
:1022D0001FED210A80ED050AE2488078042811D11B
:1022E0001320E0490870012004F096FC4FF4FA70C6
:1022F00001F018F90120DB49887003E09FEDDF0A47
:1023000002F046FEDCE1D748807802281ED14FF467
:102310009160D5490860091D08601620D1490870F0
:102320000120487003208870642001F0FBF8012030
:1023300004F0A6FCCD4890ED000ACD4880ED000ADF
:10234000CA4890ED010ACB4880ED000AB8E1C548C3
:10235000407802281ED11FED420AC74880ED030ACB
:102360001FED450A80ED040A1FED470A80ED050ABE
:10237000BC488078042811D11520BA490870012082
:1023800004F04AFC4FF4FA7001F0CCF80120B54992
:10239000887003E01FED4F0A02F0FAFD90E1B148AA
:1023A000807802281ED14FF49160AF490860091D62
:1023B00008601820AB49087001204870032088701D
:1023C000642001F0AFF8012004F05AFCA74890ED1A
:1023D000000AA74880ED000AA44890ED010AA5482C
:1023E00080ED000A6CE19F48407802281ED11FED65
:1023F000680AA14880ED030A1FED6B0A80ED040A0C
:102400001FED6D0A80ED050A96488078042811D1E9
:10241000172094490870012004F0FEFB4FF4FA7075
:1024200001F080F801208F49887003E09FED930A46
:1024300002F0AEFD44E18B48807802281ED14FF4B3
:10244000916089490860091D08601A208549087053
:102450000120487003208870642001F063F8012097
:1024600004F00EFC814890ED000A814880ED000ADE
:102470007E4890ED010A7F4880ED000A20E179480E
:102480004078022824D14FF4916077490860091DF3
:1024900008601FED910A784880ED030A1FED940A49
:1024A00080ED040A1FED960A80ED050A6D488078DC
:1024B000042811D119206B490870012004F0ACFBED
:1024C0004FF4FA7001F02EF801206649887003E09D
:1024D0001FED9E0A02F05CFDF2E06248807802285F
:1024E0001ED14FF4916060490860091D08601C20EE
:1024F0005C4908700120487003208870642001F056
:1025000011F8012004F0BCFB584890ED000A58482F
:1025100080ED000A554890ED010A564880ED000A0A
:10252000CEE050484078022824D14FF491604E49C3
:102530000860091D08601FEDBA0A4F4880ED030AC4
:102540001FEDBD0A80ED040A1FEDBF0A80ED050AEC
:1025500044488078042811D11B204249087001208A
:1025600004F05AFB4FF4FA7000F0DCFF01203D4903
:10257000887003E09FED410A02F00AFDA0E03948AF
:102580008078022818D10C20364908700120487044
:10259000642000F0C7FF354890ED000A344880ED14
:1025A000000A324890ED010A324880ED000A00200E
:1025B0002D490860091D086082E02A4840780228F9
:1025C00022D11FEDDD0A2C4880ED030A1FEDE00A41
:1025D00080ED040A1FEDE20A80ED050A0020214982
:1025E0008870042000F092F920B10D201D49087078
:1025F00001204870102000F089F948B10E201949D7
:1026000008700020487003E01FEDEF0A02F0C0FCE4
:1026100056E014484078022823D11FEDF30A1648EB
:1026200080ED030A1FEDF60A80ED040A1FEDF80A9B
:1026300080ED050A00200B498870082000F066F93B
:1026400020B10F200749087001204870102000E0D9
:102650003AE000F05BF920B10E200249087000203A
:1026600048702DE000000020341800402089002030
:102670000C000020100000200889002033333D4268
:1026800012484078022818D19FED110A114880EDB8
:10269000030A9FED0F0A80ED040A9FED0D0A80EDFD
:1026A000050A002009498870042000F02FF920B1A4
:1026B0000D20064908700120487001E000E000BFCD
:1026C00000BF052000F02EFFFFF7C3BB0000002075
:1026D000000000000889002000202449096811B189
:1026E00040F0010001E000F0FE002049091D0968EA
:1026F00011B140F0020001E000F0FD001B4908317B
:10270000096811B140F0040001E000F0FB00174936
:102710000C31096811B140F0080001E000F0F70049
:1027200012491031096811B140F0100001E000F0C9
:10273000EF000E491431096811B140F0200001E0AA
:1027400000F0DF0009491831096811B140F040007C
:1027500001E000F0BF0005491C31096811B140F0EB
:10276000800001E000F07F0070470000200242423C
:10277000F0B50A4600210023002400BF3DE00125FA
:1027800005FA01F3156805EA03049C4234D1056893
:102790004F000326BE40B543056015794E00B54095
:1027A0000668354305601579012D02D01579022D93
:1027B00016D185684F000326BE40B5438560557924
:1027C0004E00B540866835438560456801268E40D9
:1027D000B5434560456896798E40B6B2354345604D
:1027E000C5684F000326BE40B543C560D5794E008D
:1027F000B540C6683543C560491C1029BFD3F0BD3C
:10280000F0B5002300244D07ED0E02FA05F3CE10BB
:1028100000F1200555F826504E07F70E0F26BE4052
:10282000B543CF1000F1200646F82750CE1000F136
:10283000200555F8265045EA0304CE1000F1200586
:1028400045F82640F0BD4183704701837047000082
:1028500000202B49096811B140F0010002E040F668
:10286000FE7108402649091F096811B140F00200B5
:1028700002E040F6FD7108402249096811B140F0BC
:10288000040002E040F6FB7108401D493031096840
:1028900011B140F0080002E040F6F7710840184915
:1028A0002831096811B940F4807002E040F6FF61F8
:1028B000084014491C39096811B940F0100002E0C1
:1028C00040F6EF7108401049096811B940F0200046
:1028D00002E040F6DF7108400B49091D096811B993
:1028E00040F0400002E040F6BF7108400649083160
:1028F000096811B940F0800001E000F07F007047E6
:10290000040243421C0242422482414201460248E0
:102910000078084070470000148A002010B508486D
:102920000078012806D100F069FE00EE100AB8EE2A
:10293000400A10BD034890ED000AB8EE400AF8E7DF
:1029400086000020480000200146024880780840A8
:10295000C0B27047148A002000BFFEE710B542489D
:10296000007909287CD2DFE800F07B05121F2B7B61
:1029700037405E009FED3D1ADFED3C0A9FED3C0ABB
:102980004FF4FA4201213B4801F0C4F969E09FEDA0
:10299000371ADFED360A9FED360A4FF4FA4202216C
:1029A000344801F0B7F95CE09FED301ADFED2F0AF3
:1029B0009FED2F0A002201212E4801F0ABF950E0D3
:1029C0009FED2A1ADFED290A9FED290A0022022134
:1029D000284801F09FF944E02748D0ED000A274835
:1029E00090ED000A04F04CFE3BE0254890ED000A13
:1029F000DFED240AB4EEE00AF1EE10FA09D29FED01
:102A0000220A224880ED030A9FED1F0A80ED040A86
:102A100008E09FED1F0A1D4880ED030A9FED1A0A8A
:102A200080ED040A1DE0164890ED000AB5EEC00ADC
:102A3000F1EE10FA0ADD9FED140A144880ED030A46
:102A40009FED110A80ED040A09E009E09FED110AEB
:102A50000E4880ED030A9FED0C0A80ED040A00E0A9
:102A600000BF00BF10BD0000000000200000E145D5
:102A700000C0284600680040540200205002002098
:102A80002089002000007AC400000000088900208E
:102A9000CDCCCCBECDCCCC3E1CB50121102001F05C
:102AA000E7FE4FF4FE40009000208DF80400032064
:102AB0008DF8050001208DF8070069460148FFF7F1
:102AC00057FE1CBD0010024030B58BB004460D46C9
:102AD0000121402001F0DCFE0121022001F0C8FEAE
:102AE00009220E212648FFF78BFE09220F212448D8
:102AF000FFF786FE4FF44040099002208DF8280031
:102B000003208DF8290000208DF82A0001208DF87F
:102B10002B0009A91A48FFF72BFEA8B2ADF8180040
:102B20000020ADF81A000794ADF8200006A915485A
:102B300002F0ECF96020ADF804000120ADF80600C9
:102B40000020ADF810004FF47A70039001A90D48F1
:102B500002F034F901A90B4802F078F9082109487C
:102B600002F06AF90821074802F0C2F9012105487C
:102B700002F00CF90121034802F014F90BB030BD4A
:102B8000000402400018004010B54FF4E130FEF799
:102B900029FD4FF4E13004F04DF90A48B0F9040082
:102BA00000EE100AB8EEC00A9FED071AC0EE010A47
:102BB000064890ED000A9FED061A00EE810A80EDAE
:102BC000000A10BD1400002000000047AC000020E7
:102BD0000000344310B50F48B0F9020000EE900A2F
:102BE000F8EEE00AB0EE600A0B48B0F9000000EE23
:102BF000900AF8EEE00A094801F046F9074890ED1E
:102C0000090ABDEEC00A10EE100A00B20149C880E0
:102C100010BD0000A47B002020000020387D002093
:102C20000EB518480268D2E904109269CDE9010294
:102C300000911548D0ED020AB0EE600A1148006814
:102C40000FC803F003FC1048B0F9020000EE900A30
:102C5000F8EEE00AB0EE600A0C48B0F9000000EEB1
:102C6000900AF8EEE00A0A4801F00EF9084890EDE3
:102C7000090ABDEEC00A10EE100A00B20249C8806F
:102C80000EBD0000F00000208C7B00201E00002004
:102C9000B07B002000BFFEE70CE0FFF7C1FFFFF7AD
:102CA00099FF04F047FA04F0CBFBFFF757FE05202D
:102CB00000F038FCF1E7704770B5002100230F22C7
:102CC000C4781CB3174C246804F4E064C4F5E064D1
:102CD000C4F30721C1F10404E3B20A4144789C40E3
:102CE000E1B28478144021430C07210E0E4C057884
:102CF0006155047804F01F050124AC4005786D117E
:102D0000AD0005F1E025C5F8004109E0047804F0C4
:102D10001F050124AC40054D0678761145F8264084
:102D200070BD00000CED00E000E400E080E100E098
:102D300002490143024A1160704700000000FA0591
:102D40000CED00E010B500F013F800F05BFD00F0B2
:102D500083FD00F0A3FD00F02BFD00F0EBFC00F084
:102D600037FE00F0DBFD00F001FE00F002F810BDC0
:102D70007047704706480078012808D10548007858
:102D8000FF2804D203480078401C024908707047AD
:102D9000860000207900002010B500241A48007831
:102DA000012830D1FDF792FA04461848007820B186
:102DB00016480078401E1549087014480078F8B984
:102DC00013480078E0B900F065FE1248124909780E
:102DD00050F82100114908600F480078104909781F
:102DE00088420DD00D480068806B401C0B49096873
:102DF00088630C480068401C0A490860FDF786FAA1
:102E00002046FDF767FA10BD8600002079000020FB
:102E10007A000020908300207C0000209400002095
:102E20007B0000206000002010B500240B480078D3
:102E3000012811D1FDF74AFA04460948007840B943
:102E400008480078FF2804D206480078401C05494D
:102E500008702046FDF73EFA10BD000086000020F5
:102E6000790000207A00002010B500241348007873
:102E7000012821D1FDF72AFA044611480078C0B193
:102E80000F480078401E0E4908700846007860B967
:102E90000C48007828B92046FDF71CFA00F0C0FD68
:102EA0000AE02046FDF716FA06E02046FDF712FA82
:102EB00002E02046FDF70EFA10BD0000860000205B
:102EC0007A0000207900002010B50B48007890B9F6
:102ED00000F0E0FD094800780949087009480749F1
:102EE000097850F821000849086008460068074939
:102EF0000860FDF7F2F910BD860000207C0000207C
:102F00007B00002090830020940000208C00002093
:102F1000704700002DE9FE4F06460F4690461C46BE
:102F20004FF00009FDF7D2F981461F48007828B11B
:102F30004846FDF7CFF93C20BDE8FE8F1B4850F80E
:102F4000240060BB0120194941F824004846FDF7E0
:102F5000C1F9002342463946304600F0B5F98246B1
:102F60000020009001900346024651460290204600
:102F700000F0A6FD054635B90D48007801280CD1B2
:102F800000F04EFD09E0FDF7A1F981460020074958
:102F900041F824004846FDF79DF92846CCE748460D
:102FA000FDF798F92820C7E77900002090830020DA
:102FB000860000202DE9F04F85B081468A46934671
:102FC0001C46DDE90F78129D00200390FDF77EF985
:102FD00003902348007830B10398FDF77BF93C203B
:102FE00005B0BDE8F08F1F4850F8240088BB0120D1
:102FF0001C4941F824000398FDF76CF92A46414624
:10300000384600F079FE2B465A465146484600F0B5
:103010005BF904901198CDE9008002953A4620466C
:103020000E9B049900F04CFD064636B90E48007818
:1030300001280CD100F0F4FC09E0FDF747F90390FA
:103040000020084941F824000398FDF743F9304671
:10305000C6E7FFE70398FDF73DF92820C0E7000029
:103060007900002090830020860000207047000037
:103070002DE9F041054600274748007810B140206F
:10308000BDE8F0813F2D01D13E20F9E7FDF71EF9A3
:103090000746FF2D03D14148006890F83250404860
:1030A00050F8254024B93846FDF714F94320E7E7E6
:1030B000012C04D13846FDF70DF93D20E0E714F866
:1030C000340F3849085C617888432178354A505478
:1030D00014F834091146085C30B994F836103248B7
:1030E0000078884330490870E06918B12046E169EA
:1030F00000F00AFB666A16B1304600F047FB00207C
:10310000E06284F8300084F8310028480078FF2815
:1031100004D226480078401C244908703846FDF740
:10312000D9F800F0F0FAFDF7D1F807461F4800780B
:1031300020B11E480078401E1C490870204600F04F
:1031400041F81B480078401E1949087000201449B6
:1031500041F82500A06930B90020616988611549EE
:103160006069086005E0D4E905014861D4E905100B
:1031700088611148006860610F4804600FA0E06436
:103180003846FDF7A7F80E480078012801D100F075
:1031900047FC002074E70000790000208C0000202C
:1031A000908300207E0000207D0000207A00002017
:1031B0008700002098000020900000203F000000C1
:1031C00086000020704770472DE9F04106460F4603
:1031D00014464FF000081548007818B112202070EE
:1031E000BDE8F081FDF772F88046FF2E03D110484C
:1031F000006890F832600F4850F826502DB94046CC
:10320000FDF768F843202070EAE7012D05D140461C
:10321000FDF760F843202070E2E7EF644046FDF7D9
:1032200059F80020207000BFDAE700007900002084
:103230008C00002090830020704770472DE9F047F4
:1032400007460D464FF0000A002028606860FDF731
:103250003DF88246FF2F03D11948006890F832707C
:10326000184850F827402CB95046FDF733F8432052
:10327000BDE8F087012C04D15046FDF72BF8432020
:10328000F6E7207C00F0010020B95046FDF722F857
:103290004520EDE70026D4F80C90D4F8088050467D
:1032A000FDF718F800E0761C58F8041B0029FAD046
:1032B000B0002860A9EB0600800068600020D7E716
:1032C0008C0000209083002070B504461046002634
:1032D000051F28462E604FF48056051F28462E6095
:1032E0001526051F28462E601426051F28462E6029
:1032F0001326051F28462E601226051F28462E601D
:103300001126051F28462E601026051F28462E6010
:103310000926051F28462E600826051F28462E6010
:103320000726051F28462E600626051F28462E6004
:103330000526051F28462E600426051F28462E60F8
:103340000326051F28462E600226051F28462E60EC
:103350000126051F28462E600026051F28462E60E0
:103360004FF080750560051F28462C60414E051FF3
:1033700028462E604FF01236051F28462E604FF06B
:103380000336051F28462E604FF00236051F2846DB
:103390002E607610051F28462E60051F28462960DE
:1033A0003126051F28462E603026051F28462E6030
:1033B0002926051F28462E602826051F28462E6030
:1033C0002726051F28462E602626051F28462E6024
:1033D0002526051F28462E602426051F28462E6018
:1033E0002326051F28462E602226051F28462E600C
:1033F0002126051F28462E602026051F28462E6000
:103400001926051F28462E601826051F28462E60FF
:103410001726051F28462E601626051F28462E60F3
:103420004FF01136051F28462E604FF01036051F4D
:1034300028462E604FF00936051F28462E604FF0B3
:103440000836051F28462E604FF00736051F284610
:103450002E604FF00636051F28462E604FF00536C9
:10346000051F28462E604FF00436051F28462E60A3
:1034700070BD00001D3C00082DE9F04105464FF0ED
:103480000008FCF723FF8046FF2D05D12048006887
:1034900090F83250012608E01D48006890F832008C
:1034A000A84201D1012600E000261A4850F8254024
:1034B0002CB94046FCF70EFF4820BDE8F081012CF6
:1034C00004D14046FCF706FF4320F6E794F8347039
:1034D0001148C05D94F8351088430F49C855084617
:1034E000C05D30B994F836100C48007888430B4919
:1034F000087094F8300040F0080084F8300040462E
:10350000FCF7E8FE012E01D100F08AFA0020D4E792
:103510008C000020908300207E0000207D00002091
:103520007047000070B5054600261748007800B1C6
:1035300070BD1648007800B1FAE71DB3FCF7C6FE6F
:1035400006461348006890F834401248005D104960
:10355000096891F8351088430E4908550846005D02
:1035600040B90B48006890F836100B480078884343
:103570000949087006480068C5623046FCF7AAFE93
:1035800000F04EFA00BFD3E7790000207A00002057
:103590008C0000207E0000207D0000202DE9F041FD
:1035A00005460E4617461C461248007810B15520B5
:1035B000BDE8F0811048007808B13220F8E74FF4F8
:1035C0007A7060434FF47A71B0FBF1F14FF46160AF
:1035D0006843C6EB061200EB8200384400EB400261
:1035E000C2EBC01001EBC0084046FFF79BFF002074
:1035F000DEE70000790000207A00002070B5002589
:10360000FCF764FE0546034804682846FCF762FEA2
:10361000204670BDA400002070B5002600F072F8AE
:10362000FCF754FE064631480068401C2F490860EC
:103630003046FCF74FFE2E480078012853D12D4824
:10364000007820B1012804D0022809D103E0012527
:103650000BE0002509E0012501202649087004E05F
:10366000012500202349087000BF00BF05B970BDC7
:103670002148046833E0FCF729FE0646E06A50B3AF
:10368000E06A401EE062E06A28BB94F8300000F077
:10369000370040B114F8300F00F0C800207001204E
:1036A0006070303C02E0002084F8310094F8300073
:1036B00000F0080078B93434A0781049097808433C
:1036C0000E49087020780E49085C6178084314F8A8
:1036D00034190B4A505464693046FCF7FBFD94F8EA
:1036E00032003F28C7D100BFC1E70000A40000207E
:1036F000860000209C000020980000207D00002013
:103700007E0000207047704710B590F8342001F11A
:103710000B039B5C90F83540A34301F10B04A354C9
:1037200023469B5C23B98B7A90F83640A3438B7277
:1037300010BD00002DE9F0415021114800F03EF984
:1037400000250DE0681C86B20D4800EB051400EB67
:1037500006170020207067600AA0E060681C85B230
:10376000042DEFD3064800EB0514002020706060A4
:1037700004A0E060024804490860BDE8F081000050
:10378000407F00203F0000006800002030B5014667
:103790004A6808682AB9CC68606028B1002545608D
:1037A00002E0106000B142608B6800255D6230BDB0
:1037B00070B5C821114800F001F900230FE0581C32
:1037C00085B203EB83000D4901EB800405EB850016
:1037D00001EB8006002020706660581C83B2092B24
:1037E000EDD303EB8300054901EB8004002020703A
:1037F000606008460249086070BD0000787E0020C5
:103800006400002000200A4908600A4908700A493B
:1038100008700A4908700A4908700A4908600A498C
:1038200008600A4908600A4908600A490870704738
:10383000A4000020790000207A00002087000020EA
:103840008600002060000020880000207400002016
:10385000700000207800002000210A4A117000202A
:1038600004E00021084A1154411CC8B20828F8D3CA
:103870000021064A1170064A1170064A1160064A74
:10388000116070477D0000207E0000207B0000203A
:103890007C000020940000208C00002070B54FF4C4
:1038A0007C71194800F08AF84FF48071174800F0D5
:1038B00085F8002413E0601CC5B2C4EBC40000EB23
:1038C0004000114901EB8003C5EBC50000EB40004F
:1038D00001EB80065E610EA0D864601CC4B20B2CA4
:1038E000E9D3C4EBC40000EB4000074901EB8003BF
:1038F0000020586106A0D8640020064908600248EC
:103900000549086070BD000090840020908300206D
:103910003F000000980000209000002000B587B014
:103920000320002180220A4BCDE90132CDE90310AA
:103930004FF6FF703F23074A00900748FFF73AFB16
:1039400006AA06A13F20FFF73FFC07B000BD00001C
:10395000908100208C830020F53B000875432F4F99
:10396000532D49492049646C6500000000B587B0BB
:103970000320002180220A4BCDE90132CDE903105A
:103980004FF6FE703E23074A00900748FFF712FBF0
:1039900006AA06A13E20FFF717FC07B000BD0000F5
:1039A000907F00208C810020353C000875432F4F0C
:1039B000532D4949205374617400000004E0002233
:1039C00000F8012B4A1E91B20029F8D1704700007F
:1039D0002DE9F04178211048FFF7F0FF00240DE0B9
:1039E000601C86B204EB44000B4901EBC00506EBFA
:1039F000460001EBC0072F60601C84B2042CEFD39B
:103A000004EB4400044901EBC0050020286008468F
:103A100002490860BDE8F08180880020A0000020F5
:103A200010B50024FCF752FC044613480078F8B99E
:103A300012480078E0B900F02DF8114811490978D2
:103A400050F82100104908600E4800780F490978A5
:103A500088420DD00C480068806B401C0A490968F8
:103A600088630B480068401C09490860FCF747FC64
:103A70002046FCF72FFC10BD790000207A000020C2
:103A8000908300207C000020940000207B00002018
:103A9000600000200649074A1278885C0649095CE4
:103AA000034A515C01EBC001044A117070470000E9
:103AB000E09200087D0000207E0000207C000020B5
:103AC0002DE9F84F05460F4690469946DDE90AABC9
:103AD00000200090FCF7FAFB00903F480468002C9F
:103AE00074D0183454F8040C3B4908600098FCF773
:103AF000F1FB44F8187CA5760020207660766061A2
:103B000044F814BC44F80CAC44F8108C0C9824F81D
:103B1000080C24F8069C0020E077E810207705F0D8
:103B20000700E076217F01208840A077E17E012018
:103B30008840607700206060E060A0602062A06242
:103B40006062E062206325A06063183C002606E006
:103B5000002104F1500040F82610701CC6B2002E5F
:103B6000F6D02046FFF7D4F92046FFF77FFAFCF79E
:103B7000ADFB00901A4840F825401A480068606183
:103B80000020A0611748006810B1164800688461E1
:103B9000144804603434A078134909780843124962
:103BA000087020781149085C6178084314F83419CA
:103BB0000E4A50540E480078401C0D490870009879
:103BC000FCF788FB0020BDE8F88FFFE70098FCF7C2
:103BD00081FB4220F7E70000900000203F0000003A
:103BE00090830020980000207D0000207E000020AF
:103BF00087000020002400BF00BFFCF767FB0446DD
:103C000005480068401C044908602046FCF762FB38
:103C1000FFF7D9FAF1E700008800002010B504484A
:103C20000068FFF709FBFF20FFF722FA10BD000034
:103C30008C000020002400BF02E0C820FFF772FCC7
:103C4000194800780028F8D0184800686421B0FBB3
:103C5000F1F0164908600846006828B900201449A8
:103C60000870FF20FFF708FC00BFFCF72FFB04469D
:103C7000104800681049086000200E49086020467E
:103C8000FCF728FB0C48006808490968B0FBF1F014
:103C9000C0F1640006490870FFF7CFFA00F00EF893
:103CA0006420FFF73FFCE0E7780000207000002070
:103CB0006C00002088000020740000207CB50025E6
:103CC00014E069462846FFF7B9FA064666B909487E
:103CD00050F8254044B1012C06D0D4E9020100EB94
:103CE000810060640198A064681CC5B23F2DE8D9CA
:103CF0007CBD00009083002002F0010343B102F07C
:103D000002032BB102E0491E002308C00029FAD1AA
:103D100070470000F0B52DED048B89B007460E46C4
:103D20001546B0EE408AF0EE608AB0EE419A494AFC
:103D300007CA06AB07C3022484E006A850F8240093
:103D400000EB4610019000208DF80C008DF80D005E
:103D500008208DF80E00A4B9E8B28DF80F00290AEA
:103D60008DF81010290C8DF81110290E8DF81210F5
:103D700000218DF813108DF814108DF815108DF8A2
:103D80001610012C1AD18DED008A9DF800008DF8D7
:103D90000F009DF801108DF810109DF802108DF89D
:103DA00011109DF803108DF8121000218DF81310DA
:103DB0008DF814108DF815108DF81610022C23D1E3
:103DC000CDED008A9DF800008DF80F009DF80110E0
:103DD0008DF810109DF802108DF811109DF8031049
:103DE0008DF812108DED009A9DF800108DF81310CB
:103DF0009DF801108DF814109DF802108DF8151023
:103E00009DF803108DF8161000201349087001A9C1
:103E10003846FDF77AFF0020104908600CE00120C9
:103E2000FDF736FD0D480068401C0C490860084647
:103E30000068642800D903E0074800780028EED025
:103E400000BF641E002CBFF678AF09B0BDEC048B38
:103E5000F0BD0000D4920008300000202C000020AB
:103E6000B4EEE00AF1EE10FA01DDB0EE600AB1EE58
:103E7000601AB4EEC10AF1EE10FA03D2B1EE601A84
:103E8000B0EE410A7047000000B5F0EE401AB0EE07
:103E9000602A32EE610A80ED050A90ED050AD0ED48
:103EA000040A30EE600A80ED060A90ED011AD0EDAA
:103EB000052A21EE221AB0EE410A90ED081AF0EE22
:103EC000410AFFF7CDFFD0ED000A90ED061A00EE93
:103ED000810AD0ED050A90ED031A70EE810A90ED8B
:103EE000041AF0EE002A42EEC10A90ED021A01EE29
:103EF000200AD0ED090A30EE200A80ED090A90ED83
:103F0000090AD0ED0A0AB4EEE00AF1EE10FA03DD78
:103F100090ED0A0A80ED090A90ED090AD0ED0A0A2F
:103F2000F1EE600AB4EEE00AF1EE10FA05D290ED7F
:103F30000A0AB1EE400A80ED090A90ED040A80ED0C
:103F4000030A90ED050A80ED040A90ED050AB5EE2E
:103F5000C00AF1EE10FA02DD90ED050A03E090EDE3
:103F6000050AB1EE400AD0ED0D0AB4EEE00AF1EE1A
:103F700010FA03D29FED020A80ED090A00BD00008D
:103F80000000000080ED082AC0ED0A1A80ED000A4A
:103F9000C0ED010A80ED021A9FED0A3A80ED0B3A5E
:103FA00080ED033A80ED043A80ED093A80ED073A5E
:103FB00080ED053A80ED063A012180F83010C0ED21
:103FC0000D2A70470000000000B5F0EE401A90F88E
:103FD0003010012906D1C0ED041AC0ED031A0021EA
:103FE00080F83010C0ED051A90ED070AD0ED050AF3
:103FF00030EE200A80ED070A90ED050AD0ED040AA4
:1040000030EE600A80ED060A90ED011A90ED072A65
:1040100021EE021AB0EE410A90ED081AF0EE410AC4
:10402000FFF71EFFD0ED000A90ED051A00EE810AA1
:10403000D0ED020A90ED061A00EE810A80ED090A21
:1040400090ED090AD0ED0A0AB4EEE00AF1EE10FA9A
:1040500003DD90ED0A0A80ED090A90ED090AD0ED22
:104060000A0AF1EE600AB4EEE00AF1EE10FA05D2A7
:1040700090ED0A0AB1EE400A80ED090A90ED050ABA
:1040800080ED040A90ED050AB5EEC00AF1EE10FAD3
:1040900002DD90ED050A03E090ED050AB1EE400A5D
:1040A000D0ED0D0AB4EEE00AF1EE10FA03D29FED66
:1040B000020A80ED090A00BD000000000146014827
:1040C000405C70476C890020002004E00021034A16
:1040D0001154411CC8B20928F8DB70476C890020D4
:1040E00038B504460120009000201E494870012088
:1040F00000902EE0BDF80000204018B101201A49C0
:10410000086002E000201849086001201649091DD6
:104110000860052002F048FE00201449C1F894020E
:10412000052002F041FE01201049C1F89402084622
:10413000D0F8180230B10B484078BDF800100843A1
:1041400008494870BDF800004FF6FF7101EA4000D1
:104150000090BDF80000FF28CCDD102002F024FE06
:1041600038BD00006C8900209002404200004042AF
:1041700010B5FFF7A9FF00F081F80F48C0780E498D
:10418000097940EA01200D49088000240FE00C481D
:1041900010F81400401E012101FA00F007490988B7
:1041A000084010B9601CC0B210BD601CC4B2102C15
:1041B000EDDB0020F8E700006C890020CC00002037
:1041C000D000002010B5002013490860102002F034
:1041D000EBFD0120FFF784FF4320FFF781FF002064
:1041E000FFF77EFF0120FFF77BFF0020FFF778FF3E
:1041F0000020FFF775FF0020FFF772FF0020FFF798
:104200006FFF0020FFF76CFF01200449C1F88C020A
:10421000102002F0C9FD10BD8C0240420000404257
:1042200010B5002013490860102002F0BDFD0120E8
:10423000FFF756FF4320FFF753FF0020FFF750FF23
:104240000020FFF74DFF5A20FFF74AFF5A20FFF7E3
:1042500047FF5A20FFF744FF5A20FFF741FF5A203B
:10426000FFF73EFF01200449C1F88C02102002F044
:104270009BFD10BD8C024042000040421CB5002056
:104280000190012000900020254908602549087808
:10429000FFF726FF23494878FFF722FF022001900D
:1042A00036E00120009027E001201D490831086018
:1042B000052002F079FD00201B49C1F89402052079
:1042C00002F072FD01201849C1F894020846D0F8A6
:1042D000180250B115489DF80410405CBDF800105C
:1042E000084312499DF804208854BDF800004FF699
:1042F000FF7101EA40000090BDF80000FF28D3DD07
:10430000102002F051FD9DF80400401CC0B2019045
:104310009DF804000928C4DB0120014908601CBD88
:104320008C024042CE000020000040426C890020F8
:1043300010B500F00BF800F009F800F007F8FFF7EF
:1043400041FF00F025F8FFF76BFF10BD10B500200E
:104350000D490860102002F027FD0120FFF7C0FE84
:104360004220FFF7BDFE0020FFF7BAFE0020FFF756
:10437000B7FE0020FFF7B4FE01200449C1F88C020B
:10438000102002F011FD10BD8C024042000040429E
:1043900010B50020124908600120FFF7A1FE44205B
:1043A000FFF79EFE0020FFF79BFE0120FFF798FE1F
:1043B0000320FFF795FE0020FFF792FE0020FFF795
:1043C0008FFE0020FFF78CFE0020FFF789FE012002
:1043D0000449C1F88C02102002F0E6FC10BD000078
:1043E0008C024042000040421CB50121084600F00A
:1043F0003FFA4020009000208DF8040003208DF843
:10440000050001208DF8070069460E48FEF7B0F957
:104410003820009001208DF8040000208DF806005F
:1044200003208DF8050001208DF807006946054836
:10443000FEF79EF90E210348FEF707FAFFF778FF13
:104440001CBD00000000024010B50720FFF736FE3B
:104450000A4908600820FFF731FE09490860052075
:10446000FFF72CFE074908600620FFF727FE0649E4
:104470000860FFF77DFE0549086010BDB40000200C
:10448000B8000020BC000020C0000020C4000020B4
:10449000F0B52DED108B8BB0B0EE408AF0EE608A57
:1044A00005460E461746E548006850B918EE100A52
:1044B00004F092FEE24A03C2E0480068401CDF4973
:1044C000086018EE100A04F087FECDE90601DC480A
:1044D00090ED000BB0EE401AF0EE601A53EC102B8A
:1044E0009DED060B51EC100B04F08CFDCDE908019D
:1044F0009DED080B51EC100B04F0A4F809EE100A26
:1045000000EE105AB8EEC00A29EE000AC0EE280AE2
:10451000BDEEE00A10EE104A00EE104AB8EEC00AF6
:1045200060EE280A00EE105AB8EEC01A80EE810A3A
:1045300039EE400AB0EE408A00EE105AB8EEC00ADA
:1045400028EE000AC0EE280AB0EE608A9FEDBD0A90
:10455000B4EEC08AF1EE10FA03D29FEDBB0AB0EEC2
:10456000408AB7EE000A30EE480A20EE000AF7EE65
:10457000000A70EEC80A20EE200AF1EE080AC0EE2A
:10458000209AB0EE080A28EE000A20EE080A20EE73
:10459000080AF1EE080A68EE200A00EEC80AF1EEF9
:1045A000000A30EE200AF1EE080A80EE20AAB8EEEA
:1045B000080A28EE000A20EE080A20EE080AF0EEAB
:1045C000080A68EE200A00EE880AF0EE080A00EEFB
:1045D000880AF7EE000A30EE200AF1EE080AC0EE73
:1045E00020AA28EE080A20EE080AF1EE080A80EE5A
:1045F00020BAB7EE000A30EE480AB1EE400AF7EEF4
:10460000000A70EEC80A20EE200AF0EE000AC0EEA2
:1046100020BAB0EE080A28EE000A60EE080AB0EEF2
:10462000001A80EE810AF0EE000AB0EE40CA00EEF9
:10463000C8CAB8EE080A28EE000A60EE080AB0EE12
:10464000001A80EE810A30EE080AF6EE000A70EEDB
:1046500020CA28EE080AF0EE000A80EE20DA06EB07
:10466000840090ED000A20EE290A601C06EB800011
:10467000D0ED000A00EE8A0AA01C06EB8000D0ED07
:10468000000A00EEAA0AE01C06EB8000D0ED000A4A
:10469000F0EE40DA40EE8BDA07EB840090ED000A92
:1046A00020EE290A601C07EB8000D0ED000A00EE26
:1046B0008A0AA01C07EB8000D0ED000A00EEAA0ACF
:1046C000E01C07EB8000D0ED000AB0EE40EA00EEFF
:1046D0008BEA06EB840090ED000A20EE2B0A601CAA
:1046E00006EB8000D0ED000A00EE8C0AA01C06EB61
:1046F0008000D0ED000A00EEAC0AE01C06EB800062
:10470000D0ED000A00EE8D0AF0EE40EA07EB8400DF
:1047100090ED000A20EE2B0A601C07EB8000D0ED24
:10472000000A00EE8C0AA01C07EB8000D0ED000A06
:1047300000EEAC0AE01C07EB8000D0ED000A00EEB2
:104740008D0AB0EE40FA414890ED000A7DEEC0FAC5
:1047500090ED010A3EEE400A8DED0A0A00EE105A75
:10476000B8EEC00A6EEE800A80EEA80AF7EE000AE4
:1047700000EEAF0AF0EE40EA00EE105AB8EEC00AC2
:104780002FEE000AC0EE280A9DED0A0AB7EE001AC5
:1047900041EE000AB0EE60FA9FED2D0ACEEE800ADF
:1047A0002C48C0ED030A9FED2A0ACFEE000AC0EDA7
:1047B000040A19EE100A04F00FFDCDE9080125489E
:1047C00090ED040A10EE101A084604F005FDCDE93C
:1047D0000601204890ED030A10EE101A084604F076
:1047E000FBFCCDE904019DED080B8DED020B9DED69
:1047F000060B8DED000B9DED040B53EC102B16A05A
:10480000FBF7CAFDB4EEE89AF1EE10FA0EDD9FED6B
:104810000E0A104880ED030A9FED0B0A80ED040A92
:104820000220124948700020044908609FED060AE2
:1048300003F082F90BB0BDEC108BF0BD3C02002000
:10484000500100206F12833A0000000020890020F0
:1048500000007A44088900202566202C2020256647
:10486000202C2020256620200D0A000000000020BA
:1048700029B1064A12680243044B1A6004E0034A55
:1048800012688243014B1A607047000030380240C2
:1048900029B1064A12680243044B1A6004E0034A35
:1048A00012688243014B1A60704700004038024092
:1048B00029B1064A12680243044B1A6004E0034A15
:1048C00012688243014B1A60704700002038024092
:1048D00029B1064A12680243044B1A6004E0034AF5
:1048E00012688243014B1A6070470000443802404E
:1048F000F0B5002100220024022500260223324FB9
:104900003F6807F00C0121B1042905D0082937D1EF
:1049100005E02E4F076036E02D4F076033E02A4F49
:104920003F1F3F68C7F38056274F3F1F3F6807F080
:104930003F036EB1264FB7FBF3F7DFF88CC0ACF145
:10494000040CDCF800C0CCF3881C07FB0CF40CE072
:104950001E4FB7FBF3F7DFF870C0ACF1040CDCF8C6
:1049600000C0CCF3881C07FB0CF4174F3F1F3F68B7
:10497000C7F301477F1C7D00B4FBF5F7076002E039
:10498000124F076000BF00BF0F4F3F6807F0F001F4
:104990000909104F7A5C0768D74047600A4F3F68A3
:1049A00007F4E051890A0B4F7A5C4768D74087606B
:1049B000054F3F6807F46041490B064F7A5C476832
:1049C000D740C760F0BD0000083802400024F40062
:1049D00000127A003100002010B5FDF77DFE03497A
:1049E0000870FDF735FF0149488010BD148A00208A
:1049F0002348B0F9040000EE100AB8EEC00A9FED9B
:104A0000211AC0EE010A204890ED000A9FED1F1AFE
:104A100010EE810A1E48D0ED000A30EE200A1D4833
:104A200080ED030A90ED030ADFED180AB4EEE00A08
:104A3000F1EE10FA0CDD90ED030ADFED140A30EE12
:104A4000600ADFED150A30EE200A80ED030A15E05A
:104A5000104890ED030ADFED100AB4EEE00AF1EE23
:104A600010FA0BD890ED030ADFED080A30EE200AA9
:104A7000DFED060A30EE200A80ED030A70470000E1
:104A80001400002000000047AC0000200000344368
:104A9000A800002094890020000034C3154890ED40
:104AA000000A1548D0ED000A30EE600AF1EE040A63
:104AB00080EE201A114880ED0C1A0E4890ED010A84
:104AC0000F48D0ED000A30EE600AF1EE040A80EEE5
:104AD000201A0A4880ED0D1A064890ED000A064893
:104AE00080ED000A034890ED010A054880ED000AB8
:104AF000704700002089002044020020148A002012
:104B00004802002070470024FDF708FF1CE0012345
:104B1000002211461046FEF741FD00BFFFF75CFF83
:104B200000BFFFF765FF1420B4FBF0F100FB11405C
:104B300008B903F019FA1420B4FBF0F100FB11409E
:104B400008B9FFF7ABFF641CE1E700000CB50020DB
:104B5000019000903448006840F480303249086089
:104B600000BF3148006800F4003000900198401CFC
:104B70000190009818B90198B0F5A04FF1D12A48DA
:104B8000006800F4003010B10120009001E0002026
:104B900000900098012846D123484030006840F03A
:104BA00080502149403108602048006840F440406E
:104BB0001E4908601C48083000681B49083108601D
:104BC0000846006840F4004008600846006840F469
:104BD000A05008601648091F0860081F006840F0D0
:104BE0008070091F086000BF0F48006800F0007067
:104BF0000028F9D040F205700E4908600A480830D4
:104C0000006820F003000849083108600846006881
:104C100040F00200086000BF03480830006800F060
:104C20000C000828F8D10CBD00380240007000408C
:104C300008544007003C0240042808D14FF0E0210E
:104C4000096941F004014FF0E022116107E04FF0E3
:104C5000E021096921F004014FF0E0221161704761
:104C600010B505480078012805D1FEF783F8FEF756
:104C7000D3FCFEF791F810BD8600002010B5154852
:104C8000006840F47000134908601348006840F061
:104C900001001149086000200F49083108600E48E2
:104CA00000680E4908400C4908600D48091D08605D
:104CB000081F006820F48020091F086000200649B2
:104CC0000C310860FFF742FF4FF000600149803966
:104CD000086010BD88ED00E000380240FFFFF6FEDE
:104CE0001030002430B58BB004460D460121080475
:104CF000FFF7CEFD01211020FFF7BAFD03220521A9
:104D00002048FDF77DFD032206211E48FDF778FDB2
:104D10006020099002208DF8280003208DF82900DA
:104D200000208DF82A0001208DF82B0009A91548D4
:104D3000FDF71EFDA8B2ADF818000020ADF81A006E
:104D40000794ADF8200006A90F4800F0DFF86020B6
:104D5000ADF804000120ADF806000220ADF8100007
:104D600001A9094800F02AF80821074800F064F872
:104D70000121054800F00AF80121034800F012F86B
:104D80000BB030BD001002400040014021B102884C
:104D900042F08002028004E002884FF67F731A40DE
:104DA0000280704721B1028842F00102028004E0D3
:104DB00002884FF6FE731A400280704770B50024D7
:104DC00000220023058C4FF6FE7635400584028CC8
:104DD0008388048B4FF68F752C40B51E2C400D88B0
:104DE0002C43751E2A408D892A434D882A43104D35
:104DF000A84202D00F4DA84213D14FF6F7752A40B2
:104E0000CD892A434FF6FB752A408D882A434FF6F9
:104E1000FF652B404FF6FF552B400D8A2B434D8AE3
:104E20002B43838004838D684563028470BD00003A
:104E300000000140000401400A460021018B4FF6AA
:104E4000F7731940114301837047000070B50024C7
:104E500000220023058C4FF6EF7635400584028C46
:104E60008388048B48F6FF752C404FF6FF452C4095
:104E70000D884FF6FF7606EA05252C434FF6DF75C1
:104E80002A408D8906EA05152A434D8806EA05154C
:104E90002A43154DA84202D0144DA8421DD14FF609
:104EA0007F752A40CD894FF6FF7606EA05152A431D
:104EB0004FF6BF752A408D8806EA05152A434FF63E
:104EC000FF352B404FF2FF752B400D8A06EA850512
:104ED0002B434D8A06EA85052B43838004838D6826
:104EE0008563028470BD00000000014000040140A1
:104EF0000A460021018B4FF2FF7319404FF6FF73F2
:104F000003EA02231943018370470000002202884C
:104F1000184B98420ED0184B98420BD0B0F1804FEE
:104F200008D0164B984205D0154B984202D0154B2D
:104F3000984204D14FF68F731A404B881A43124B94
:104F4000984207D0114B984204D04FF6FF431A40C5
:104F50000B891A4302804B68C3620B880385054B9B
:104F6000984202D0044B984201D18B7A03860123E8
:104F700083827047000001400004014000040040AB
:104F800000080040000C00400010004000140040E9
:104F900010B52DED028BB0EE408A0D4890ED030A5E
:104FA00038EE400A0B4880ED000A90ED000A0A48EE
:104FB000FFF70AF8084890ED090ABDEEC00A10EEA6
:104FC000100A00B205490880BDEC028B10BD00003C
:104FD0009489002058020020207C0020200000201E
:104FE00010B540F225510A4800F09CF901280DD176
:104FF00040F22551064800F07AF9054800F04CFAD5
:10500000044908700846007801F06EFF10BD0000EA
:10501000004C00401C00002010B5FDF7ABFE40F234
:1050200025511E4800F07EF910B31C4800F034FAF8
:10503000C4B21B48008800F40040C8B91848008872
:1050400000F4804060B10A2C03D00020144908808D
:1050500020E01348008840F400401149088019E01E
:105060000D2C06D10E48008840F480400C49088081
:1050700010E00B480088C0F30D000A490C540848A2
:105080000088401C0649088008460088C72801DDC2
:1050900000200880FDF780FE10BD000000100140D8
:1050A000500000208C7D002010B540F225511D4895
:1050B00000F038F9002834D040F22551194800F0AA
:1050C00016F9184800F0E8F9174908700846017801
:1050D00016A0FBF761F9134800F0DEF91549164AEE
:1050E0001268885414480068401C13490860084638
:1050F0000068401E0F49085C0A2803D00E4800686B
:1051000012280ED10B480078112807D109490BA0AD
:10511000FBF742F900200849086002E00020064938
:10512000086010BD004400405D00002025640D0AA9
:1051300000000000667E00205800002025730D0A44
:105140000000000010B540F22551384800F0EAF8A0
:1051500001286AD1354800F09FF935490870354873
:105160000078052857D2DFE800F00311263D4B00F8
:105170002F4800780D2805D12E480078401C2D4975
:10518000087002E000202B49087048E028480078A9
:105190000A2808D100202849087026480078401CB9
:1051A0002449087006E0224800780D2802D000202B
:1051B0002049087033E01E48007820491E4A1278C2
:1051C00088541D480078401C1B4908700846007828
:1051D000182806DB0020087016480078401C154986
:1051E00008701CE0124800780A2805D111480078A0
:1051F000401C1049087002E000200E4908700EE0C3
:105200000B4800780D2802D10C4800F04BF9002023
:105210000849087003E000200649087000BF00BF7D
:1052200040F22551014800F062F810BD00480040EE
:10523000B0000020B1000020B200002054890020FE
:1052400010B540F225511D4800F06CF8002834D00C
:1052500040F22551194800F04AF8184800F01CF9AE
:10526000174908700846017816A0FBF795F813480F
:1052700000F012F91549164A12688854144800685B
:10528000401C1349086008460068401E0F49085C2E
:105290000A2803D00E48006812280ED10B48007867
:1052A000112807D109490BA0FBF776F8002008491F
:1052B000086002E000200649086010BD00140140AB
:1052C0005C00002025640D0A00000000547E0020D0
:1052D0005400002025730D0A0000000001F4007244
:1052E000B2F5007F00D100BFCA430280704710B5FD
:1052F0000022002340F66A14A14200D100BF0A1226
:1053000001249440A3B2DC43048010BD21B1828902
:1053100042F40052828104E082894DF6FF731A4004
:105320008281704770B502460024002300250020CA
:1053300040F66A16B14200D100BFC1F3421501F038
:105340001F03012606FA03F3012D02D1968933408B
:1053500006E0022D02D1168A334001E0968A3340DE
:105360000C12012606FA04F41688344013B10CB16D
:10537000012000E0002070BDF0B5034600240026A7
:105380000025002040F66A17B94200D100BF184638
:10539000C1F3421401F01F06012707FA06F5012C9C
:1053A00001D10C3004E0022C01D1103000E01430A7
:1053B0001AB107682F43076002E00768AF43076030
:1053C000F0BD00002DE9FF4705460E460024A1462A
:1053D00000BFA046B08900B100BF2C8A24F440541D
:1053E000F08804432C82AC8941F20C608443B0887D
:1053F00031890843718908430443AC81AC8A24F4A1
:105400004074B0890443AC826846FFF771FA2048C3
:10541000854202D01F48854202D1DDF80C9001E0A0
:10542000DDF80890A88900F4004040B109EBC900FC
:1054300000EB091031684900B0FBF1F707E009EB18
:10544000C90000EB091031688900B0FBF1F7642056
:10545000B7FBF0F004012009642101FB1078A88952
:1054600000F4004040B1322000EBC800B0FBF1F086
:1054700000F00700044308E0322000EB081064212C
:10548000B0FBF1F000F00F0004432C81BDE8FF8772
:10549000001001400014014001468888C0F3080054
:1054A000704700002A4991ED030A81ED060A91ED4B
:1054B000040A81ED070A90ED000A81ED000A90EDE3
:1054C000010A81ED010A90ED020A81ED020A90EDD8
:1054D000030A81ED030A90ED040A81ED040A90EDC0
:1054E000050A81ED050A91ED030AD1ED060A30EEB9
:1054F000600A81ED080A91ED040AD1ED070A30EE49
:10550000600A81ED090A91ED000A124981ED020A53
:10551000114991ED000A0E49D1ED090A30EE200A39
:105520000D4981ED000A0B4991ED010A0849D1EDC1
:10553000080A30EE200A074981ED010A064991ED7B
:10554000000AB1EE400A034981ED000A70470000ED
:105550002C890020208900209489002000BFFEE7CC
:1055600000B52DED108B8BB0F0EE408AB0EE609A56
:10557000F0EE419AB0EE618A9FEDFE0A28EE000A35
:10558000DFEDFD0A80EE201AB0EE418A9FEDFB0AA6
:1055900029EE800A10EE101A084603F01DFE41ECB9
:1055A0001E0B19EE100A03F017FE41EC1A0B9FEDCB
:1055B000F40A38EE400A10EE101A084603F00CFE0A
:1055C00041EC1C0BB0EE4C0AF0EE6C0A00F084FAD1
:1055D000B0EE40BAF0EE60BA53EC1A2B51EC1B0B54
:1055E00003F004FB41EC1F0B18EE900A03F0F4FDEE
:1055F00041EC1A0B9FEDE20A38EE400A10EE101A49
:10560000084603F0E9FD41EC1D0BB0EE4D0AF0EE4B
:105610006D0A00F0FDF9B0EE40CAF0EE60CA51EC40
:105620001C0B03F003F841EC1B0B53EC1A2B03F09B
:10563000DDFA53EC1F2BCDE900019DED000B51EC81
:10564000100B03F0DFFC53EC1E2BCDE902019DEDA6
:10565000020B51EC100B03F027F89FEDCA0B53EC33
:10566000102BCDE904019DED040B51EC100B03F060
:10567000BDFA9FEDC60B53EC102BCDE906019DED55
:10568000060B51EC100B03F0C3F8CDE908019DEDBA
:10569000080B51EC100B02F0D5FFBE4908609FEDDE
:1056A000B70A29EE800A10EE101A084603F094FD9E
:1056B000CDE9020119EE100A03F08EFD41EC1A0B40
:1056C0009FEDAF0A38EE000A10EE101A084603F0FC
:1056D00083FD41EC1C0BB0EE4C0AF0EE6C0A00F0BE
:1056E000FBF9B0EE40BAF0EE60BA53EC1A2B51EC75
:1056F0001B0B03F07BFA41EC1E0B18EE900A03F033
:105700006BFD41EC1A0B9FED9E0A38EE000A10EE7D
:10571000101A084603F060FD41EC1D0BB0EE4D0A77
:10572000F0EE6D0A00F074F9B0EE40CAF0EE60CA17
:1057300051EC1C0B02F07AFF41EC1B0B53EC1A2BC3
:1057400003F054FA41EC1F0B53EC1E2B03F05AFCF0
:10575000CDE900019DED020B53EC102B9DED000BEC
:1057600051EC100B02F0A0FF9FED860B53EC102BB9
:10577000CDE904019DED040B51EC100B03F036FA5A
:105780009FED820B53EC102BCDE906019DED060B2E
:1057900051EC100B03F03CF8CDE908019DED080B2E
:1057A00051EC100B02F04EFF7A4948609FED730AEE
:1057B00029EE800A10EE101A084603F00DFDCDE91F
:1057C000020119EE100A03F007FD41EC1B0B9FEDDF
:1057D0006C0A38EE400A10EE101A084603F0FCFC82
:1057E00041EC1D0BB0EE4D0AF0EE6D0A00F074F9BD
:1057F000B0EE40CAF0EE60CA53EC1B2B51EC1C0B10
:1058000003F0F4F941EC1F0B18EE900A03F0E4FCEE
:1058100041EC1B0B9FED5A0A38EE400A10EE101AAD
:10582000084603F0D9FC41EC1D0BB0EE4D0AF0EE3A
:105830006D0A00F0EDF8B0EE40CAF0EE60CA53EC2D
:105840001B2B51EC1C0B03F0D1F941EC1A0B53EC60
:105850001F2B02F029FF41EC1E0B9DED020B53ECB8
:10586000102B02F021FF9FED470B53EC102BCDE9DD
:1058700004019DED040B51EC100B03F0B7F99FED03
:10588000430B53EC102BCDE906019DED060B51ECBB
:10589000100B02F0BDFFCDE908019DED080B51ECA6
:1058A000100B02F0CFFE3B4988609FED340A29EED1
:1058B000800A10EE101A084603F08EFCCDE90601AE
:1058C00019EE100A03F088FC41EC1B0B9FED2C0A2B
:1058D00038EE000A10EE101A084603F07DFC41EC89
:1058E0001D0BB0EE4D0AF0EE6D0A00F0F5F8B0EECB
:1058F00040CAF0EE60CA53EC1B2B51EC1C0B03F0BA
:1059000075F941EC1A0B18EE900A03F065FC41ECB6
:105910001B0B9FED1B0A38EE000A10EE101A08460A
:1059200003F05AFC41EC1D0BB0EE4D0AF0EE6D0A8F
:1059300000F06EF8B0EE40CAF0EE60CA53EC1B2BDC
:1059400051EC1C0B03F052F953EC1A2BCDE9020178
:105950009DED020B51EC100B02F0A6FECDE9040107
:105960009DED060B53EC102B9DED040B51EC100B31
:1059700012E00000DB0F494000003443CDCC0C3F67
:10598000DB0F493F0000000000D08140000000C054
:10599000B88FCE3FF888002002F086FE1FED070B7F
:1059A00053EC102BCDE908019DED080B51EC100BC9
:1059B00003F01CF941EC1E0B1FED0C0B53EC102BEC
:1059C00002F026FF41EC1F0B02F03CFE0249C860CA
:1059D0000BB0BDEC108B00BDF888002003B401981B
:1059E0004100009850EAC12018BF04204A0D18BF9A
:1059F00040F0010040F2FF72B2EB515F08BF40F08F
:105A00000200012808BF052002B070470000000016
:105A100010B52F499FED2C1B2DED020B84B005987E
:105A200020F000408842D8BF9DED040B2DDD2949B0
:105A3000884209D1049840B94FF00100FAF75BFDA4
:105A400000F0E2FC06B010BD05DB9DED040B00F09C
:105A5000CFFC06B010BD68469DED040B00F0E0F8E9
:105A600010F0030004BF9DED021B9DED000B0CD058
:105A700001280ED09DED021B9DED000B022817D0D2
:105A8000012000F01DFC06B010BD00F0E5FA06B0E4
:105A900010BD9DED021B9DED000B012000F010FCE0
:105AA00051EC100B02F0C2FD06B041EC100B10BD22
:105AB00000F0D2FA51EC100B02F0B8FD06B041EC48
:105AC000100B10BD000000000000000000000000EE
:105AD000FB21E93F0000F07F10B52F499FED2C1B03
